:100000000C945C000C946E000C946E000C946E00CA
:100010000C946E000C946E000C946E000C946E00A8
:100020000C946E000C946E000C946E000C946E0098
:100030000C946E000C946E000C946E000C946E0088
:100040000C94D4000C946E000C946E000C946E0012
:100050000C946E000C946E000C946E000C946E0068
:100060000C946E000C946E00000000080002010069
:100070000003040700000000000000000000000072
:10008000250028002B0000000000240027002A0083
:10009000040404040404040402020202020203032E
:1000A0000303030301020408102040800102040836
:1000B000102001020408102011241FBECFEFD8E049
:1000C000DEBFCDBF21E0A0E0B1E001C01D92A930AC
:1000D000B207E1F70E941E010C94DD010C940000B0
:1000E000E9EAF0E02491E5E9F0E08491882399F0D1
:1000F00090E0880F991FFC01EA57FF4FA591B4913A
:10010000FC01E458FF4F859194918FB7F894EC91DE
:10011000E22BEC938FBF0895EDE6F0E02491E9EA3D
:10012000F0E09491E5E9F0E0E491EE23C9F02223B8
:1001300039F0233001F1A8F4213019F1223029F1EE
:10014000F0E0EE0FFF1FE458FF4FA591B4912FB7D9
:10015000F894EC91811126C090959E239C932FBF1B
:1001600008952730A9F02830C9F0243049F72091AC
:1001700080002F7D03C0209180002F772093800086
:10018000DFCF24B52F7724BDDBCF24B52F7DFBCF68
:100190002091B0002F772093B000D2CF2091B000F3
:1001A0002F7DF9CF9E2BDACF1F920F920FB60F92B1
:1001B00011242F933F938F939F93AF93BF9380917D
:1001C000050190910601A0910701B09108013091BD
:1001D000040123E0230F2D3758F50196A11DB11D11
:1001E000209304018093050190930601A0930701D9
:1001F000B09308018091000190910101A09102014A
:10020000B09103010196A11DB11D8093000190934F
:100210000101A0930201B0930301BF91AF919F919F
:100220008F913F912F910F900FBE0F901F901895B7
:1002300026E8230F0296A11DB11DD2CF789484B574
:10024000826084BD84B5816084BD85B5826085BDD2
:1002500085B5816085BD80916E00816080936E0060
:100260001092810080918100826080938100809152
:100270008100816080938100809180008160809303
:1002800080008091B10084608093B1008091B000C3
:1002900081608093B00080917A00846080937A00BE
:1002A00080917A00826080937A0080917A008160E8
:1002B00080937A0080917A00806880937A0010920F
:1002C000C1000E94700085B58D7F85BD80917A0048
:1002D0008D7F80937A0080917A008E7F80937A0060
:1002E00090E4D92E2DE6E22E20E0F22E00E010E080
:1002F000D0927C0080917A00806480937A00809113
:100300007A0086FDFCCF80917800C0917900DC2FC7
:10031000C82FCC0FDD1FCC0FDD1F0E94700020976F
:1003200021F480E00E948C0022C0F7018491833088
:1003300051F148F48130B9F0823001F1C038D10573
:1003400084F381E0EFCF873041F1883071F1843060
:10035000A9F780918000806280938000D0938B0009
:10036000C0938A0004C084B5806884BDC7BD0115F0
:10037000110509F4BDCF0E940000BACF84B5806298
:1003800084BDC8BDF4CF80918000806880938000D8
:10039000D0938900C0938800EACF8091B000806834
:1003A0008093B000C093B300E2CF8091B000806230
:0E03B0008093B000C093B400DACFF894FFCF72
:00000001FF
