:100000000C945C000C946E000C946E000C946E00CA
:100010000C946E000C946E000C946E000C946E00A8
:100020000C946E000C946E000C946E000C946E0098
:100030000C946E000C946E000C946E000C946E0088
:100040000C94B1000C946E000C946E000C946E0035
:100050000C946E000C946E000C946E000C946E0068
:100060000C946E000C946E00000000080002010069
:100070000003040700000000000000000000000072
:10008000250028002B0000000000240027002A0083
:10009000040404040404040402020202020203032E
:1000A0000303030301020408102040800102040836
:1000B000102001020408102011241FBECFEFD8E049
:1000C000DEBFCDBF21E0A0E0B1E001C01D92A930AC
:1000D000B207E1F70E94FB000C94EF010C940000C2
:1000E000E9EAF0E02491E5E9F0E08491882399F0D1
:1000F00090E0880F991FFC01EA57FF4FA591B4913A
:10010000FC01E458FF4F859194918FB7F894EC91DE
:10011000E22BEC938FBF08953FB7F89480910501CF
:1001200090910601A0910701B091080126B5A89B06
:1001300005C02F3F19F00196A11DB11D3FBFBA2F79
:10014000A92F982F8827BC01CD01620F711D811D39
:10015000911D42E0660F771F881F991F4A95D1F7BE
:1001600008951F920F920FB60F9211242F933F9371
:100170008F939F93AF93BF93809101019091020160
:10018000A0910301B09104013091000123E0230FFD
:100190002D3758F50196A11DB11D209300018093C4
:1001A000010190930201A0930301B0930401809197
:1001B000050190910601A0910701B09108010196F7
:1001C000A11DB11D8093050190930601A093070125
:1001D000B0930801BF91AF919F918F913F912F9163
:1001E0000F900FBE0F901F90189526E8230F0296D0
:1001F000A11DB11DD2CF789484B5826084BD84B531
:10020000816084BD85B5826085BD85B5816085BD11
:1002100080916E00816080936E00109281008091C9
:100220008100826080938100809181008160809351
:100230008100809180008160809380008091B10076
:1002400084608093B1008091B00081608093B000A1
:1002500080917A00846080937A0080917A00826035
:1002600080937A0080917A00816080937A008091F7
:100270007A00806880937A001092C1000E9470001A
:10028000CDE6D0E009E910E099EA692E90E0792EF8
:1002900025E9C22E20E0D22E39E9532E40E0E42E8B
:1002A00040E0F42E0E947000FE018491833009F436
:1002B0005AC050F5813009F437C0823009F44EC07D
:1002C000FE018491F3019491F6012491222381F19E
:1002D000882359F0833009F46BC008F05EC0813088
:1002E00009F46CC0823009F46DC0E22FF0E0EE0F2B
:1002F000FF1FE458FF4FA591B4918FB7F8942C914C
:10030000922B9C938FBF14C08730B9F18830E9F1EC
:100310008430B1F6809180008062809380001093D9
:100320008B0000938A0004C084B5806884BD57BCEC
:100330000E948C004B015C010E948C0068197909B5
:100340008A099B09683E734081059105A8F3E11471
:10035000F10409F4A7CF0E940000A4CF84B5806205
:1003600084BD58BCE5CF8091800080688093800078
:100370001093890000938800DBCF8091B0008068E3
:100380008093B0005092B300D3CF8091B0008062D0
:100390008093B0005092B400CBCF8730B1F088305A
:1003A000D1F0843009F0A1CF809180008F7D03C00F
:1003B000809180008F778093800097CF84B58F776E
:1003C00084BD93CF84B58F7DFBCF8091B0008F77B4
:1003D0008093B0008ACF8091B0008F7DF9CFF894E0
:0203E000FFCF4D
:00000001FF
